:020000020000FC
:1000000009C0000000000000000000000000000027
:1000100000000000F8940FE90DBF04E008BB06E003
:1000200007BB04B7087031F000E004BF98C03ED0B1
:100030003DD03CD083D005E806B903E207B936D0FD
:1000400035D0369AC19A84D0A89526B320FF42D0E5
:1000500024FFC29A24FDC2983699F6CF05B10D3C13
:1000600008F45AD0369AF0CF3F932F932FE332E51E
:100070003A95F1F72A95E1F72F913F9108953F9333
:100080002F9329E13AEE3A95F1F72A95E1F72F916E
:100090003F9108953F932F932DE738EA3A95F1F772
:1000A0002A95E1F700C02F913F9108952F933F9338
:1000B0004F9325E03FED46EB4A95F1F73A95E1F78E
:1000C0002A95D1F74F913F912F910895369A3699FD
:1000D000FECF08950F935F9302E207B9369AA89571
:1000E0003699FECF05B1369A0A3070F05FEF501B9B
:1000F00056950AE0500FC29AC2DFA8955A95E1F7CB
:10010000C298BDDFC29AA895B09BE9CF03E207B9B8
:10011000369A5F910F910895C29A10D0C19AC6DFA6
:10012000C198C4DF03E207B9D1DF05B1073EB0F3E0
:1001300026B324FDF3CF0CD0C19A0895A89504B737
:10014000077F04BF01B5086101BD00E001BD08954E
:10015000A89501B5086101BD0AE001BD0895C298E6
:10016000EDDF03E0C19AA2DFC198A0DF9FDF9EDF31
:100170000A95C1F79BDF9ADF99DF03E0C19A96DF0A
:1001800095DF94DFC19892DF91DF0A95B9F78EDF92
:100190008DDF8CDF03E0C19A89DFC19887DF86DFBE
:1001A00085DF0A95C1F782DF81DF80DF7FDF7EDFB9
:0401B0007DDFD5CF4B
:00000001FF
