:100000000C9434000C9451000C9451000C94510049
:100010000C9451000C9451000C9451000C9451001C
:100020000C9451000C9451000C9451000C947D01DF
:100030000C94C2010C9451000C946C010C9451006E
:100040000C9451000C9451000C94E8000C94510055
:100050000C9451000C9451000C9451000C945100DC
:100060000C9451000C94510011241FBECFEFD8E026
:10007000DEBFCDBF12E0A0E0B1E0EEE1F4E002C0EF
:1000800005900D92A039B107D9F722E0A0E9B2E0BE
:1000900001C01D92A53AB207E1F70E94D3010C946A
:1000A0000D020C94000000000000000000000000A1
:1000B00000000895F8948030D1F10F931F930BB195
:1000C000062B823090F40BB91FEF61270623000046
:1000D0000000000000000000000000000000000020
:1000E0000000000000000BB917C08A950BB9DBDFD8
:1000F00000008A95000000000000000000000000E1
:1001000000000000000000000000000089F71FEF61
:10011000612706230BB96127403039F000004A956A
:100120000000000000000000C9F71F910F917894B3
:100130000895F89481110FC01092810010926F0001
:1001400010928500109284008091A1028E7F80938E
:10015000A1022D985A98789408959091A10297FD44
:1001600036C0F894811132C0E0919F02F0E0EE0FAA
:10017000FF1FE453FE4F8081918101979C0145E070
:10018000369527954A95E1F760910A01629FA00193
:10019000639F500D112441505109E0919F02F0E0FE
:1001A000E459FE4F208110928500109284009093B4
:1001B00089008093880050938B0040938A00822F9F
:1001C00088608093810086E080936F007894089522
:1001D0001F920F920FB60F9211242F933F934F93BC
:1001E0005F936F937F938F939F93AF93BF93CF93BF
:1001F000DF93EF93FF93C091C600C7FD10920501F6
:10020000D0910501D13009F044C08091A10287FD51
:1002100040C080919602803801F580919F02C813FA
:1002200004C080919C020E949900809105018F5F1B
:10023000809305012091A10281E090E000909C0252
:1002400002C0880F991F0A94E2F780958223809359
:10025000A10281E0809304011CC08039D1F4C093D5
:100260009F0282E08093050180919C020E94AD0074
:100270002091A10281E090E000909C0202C0880FD2
:10028000991F0A94E2F7822B8093A102D093040174
:100290002D9A8091050181110CC08C2F807F809355
:1002A0009602CF70C0939C02C23018F481E0809314
:1002B0000501FF91EF91DF91CF91BF91AF919F9198
:1002C0008F917F916F915F914F913F912F910F90FF
:1002D0000FBE0F901F9018951F920F920FB60F929E
:1002E00011248F9385B58C7F85BD5A9816BC8F914C
:1002F0000F900FBE0F901F9018951F920F920FB680
:100300000F9211242F933F934F935F936F937F939B
:100310008F939F93AF93BF93EF93FF9380910601C9
:100320008130E1F49091090190939E0280919F02A7
:10033000803638F4E0919F02F0E0E45FFE4F808168
:1003400002C080916B01891710F480939E02809106
:100350009E02482F64E00E945A0003C0811101C030
:100360005A9AFF91EF91BF91AF919F918F917F9199
:100370006F915F914F913F912F910F900FBE0F9012
:100380001F9018951F920F920FB60F9211248F9302
:1003900080910601811101C05A988F910F900FBE74
:1003A0000F901F901895F89414B817B81AB8529A6D
:1003B00084B1806384B92C9A449A8FE39CE90197B5
:1003C000F1F700C0000089E190E090930101809373
:1003D00000011092C500809100018093C40080E963
:1003E0008093C10086E08093C20082E084BD15BC8A
:1003F00016BC80936E0078941092A102349909C0C3
:1004000080E00E9499008091A10280688093A102FF
:0E041000F5CF8091A1028F77F9CFF894FFCF3E
:10041E00190001FF03FF0101057D0101FFFFFFFF31
:10042E00FFFFFFFFFFFFFFFFFFFFFFFFFFFFFFFFCE
:10043E00FFFFFFFFFFFFFFFFFFFFFFFFFFFFFFFFBE
:10044E00FFFFFFFFFFFFFFFFFFFFFFFFFFFFFFFFAE
:10045E00FFFFFFFFFFFFFFFFFFFFFFFFFAEAE6D2FE
:10046E00D2BBBBAA9C9C90867D7D7568685E5E55EE
:10047E004E4E48423F3E3A34342E2E2B0303030396
:10048E00030303030303030303030303030303032E
:10049E00030303030202020202020202020202022A
:1004AE00020202020202020202020202020202021E
:1004BE000202020202020202010101010101010116
:1004CE00010101010101010101010101010101010E
:1004DE000101010101010101010101017277BE70EB
:1004EE006A6A7164CE5E7C597654B84F3F4B0647AC
:1004FE000943463FB93B5F3835353832672FBE2C3E
:10050E003B2ADC279F2583238521A31FE4EE7CE174
:10051E00D4D4E2C89CBDF7B2ECA8719F7E960C8E27
:10052E0013868C7E7277BE706A6A7164CE5E7C5959
:10053E007654B84F3F4B06470943463FB93B5F38A9
:10054E0035353832672FBE2C3B2ADC279F25832377
:10055E008521A31FE4EE7CE1D4D4E2C89CBDF7B2A2
:10056E00ECA8719F7E960C8E13868C7E7277BE7071
:10057E006A6A7164CE5E7C597654B84F3F4B06471B
:10058E000943463FB93B5F3835353832672FBE2CAD
:10059E003B2ADC279F2583238521A31F1F001900DB
:00000001FF
